:100000000C94ED000C9415010C9415010C94150141
:100010000C9415010C9415010C9415010C94150108
:100020000C9415010C9415010C94120F0C94840F70
:100030000C9415010C9415010C9415010C941501E8
:100040000C9415010C9415010C9415010C941501D8
:100050000C9415010C9415010C9415010C94CC1AF8
:100060000C9415010C944C120C9426120C9415014E
:100070000C9415010C9415010C9415010C941501A8
:100080000C94C1110C9415010C9415010C941501DC
:100090000C94E1140C9415010C9415010C941501A9
:1000A0000C9415010C9415010C9415015019531959
:1000B000421946194C1974197419741957195B1996
:1000C0005F196519691974196F190000000024007F
:1000D00027002A002D003000040802011040804053
:1000E000102040804080080204018040201002015E
:1000F000108010204040200404040404030405027E
:1001000002020204030202020206060606060604B2
:1001100004020202040400000000250028002B0055
:100120002E00310003080B00020202010009040046
:100130000001020200000524001001052401010154
:10014000042402060524060001070581031000406F
:1001500009040100020A0000000705020240000035
:1001600007058302400000040309044172647569B5
:100170006E6F204C4C430041726475696E6F204D68
:100180006963726F001201000200000040412337D2
:100190008000010102030112010002EF020140414F
:1001A0002337800001010203010000000023002624
:1001B0000029002C002F000000000200090F0000A1
:1001C000030401000C00000000000000000000001B
:1001D0000000000000007E237D2311241FBECFEF0E
:1001E000DAE0DEBFCDBF26E0A0EEB2E001C01D9296
:1001F000AD3EB207E1F712E0A0E0B1E0E0EBF0E5E0
:1002000002C005900D92A03EB107D9F710E0CCEEE8
:10021000D0E004C02197FE010E945D24CB3ED107AF
:10022000C9F70E94BC1B0C944B280C9400009091C1
:10023000E0038091DF03981750F4E92FF0E0EF51CD
:10024000FC4F208130E09F5F9093E00302C02FEFCE
:100250003FEFC90108958091DF0390E02091E00312
:10026000821B9109089580E991E00895579A0895B5
:10027000CF92DF92EF92FF920F931F93CF93DF9372
:100280007C01262F972F8A0180912804882391F0E2
:10029000C62FD72F6E01C40ED51ECC15DD0571F00B
:1002A0006991D701ED91FC910190F081E02DC7019A
:1002B0000995F3CF642F822F0E940F16C801DF919A
:1002C000CF911F910F91FF90EF90DF90CF90089505
:1002D000CF93DF931F92CDB7DEB7698320912804B7
:1002E0002223D1F020914B04203240F021E030E075
:1002F000FC013383228380E090E015C080912904C3
:10030000E82FF0E0E65DFB4F998190838F5F80934B
:10031000290480934B0405C061E0CE0101960E9440
:100320000F1681E090E00F90DF91CF9108954F92EA
:100330005F926F927F928F92AF92BF92CF92DF9235
:10034000EF92FF921F93CF93DF933C01EB010E944A
:10035000E119F30127853089621B730B6A3071053F
:10036000B0F3F894E881F9817BB170688BB18F7735
:100370008BB9CA849F812C2D291B922F2F83BF8478
:100380004A805B80FD84EC84DE84F394E394D39410
:100390003E814885A9848B841181D20120E0522FAF
:1003A000622F6181112788946111690F08F46FEF42
:1003B00091958894F0FC160F17958894F1FC160F10
:1003C00017958894F2FC160F17958894F3FC160F76
:1003D00017958894F4FC160F17958894F5FC160F62
:1003E00017958894F6FC160F17958894F7FC160F4E
:1003F00017958894262FF110212F9C0D122F002C79
:100400007BB900C017FF8BB960812227889400C098
:1004100000C0002C8BB96111630F00C0002C7BB9A8
:1004200000C016FF8BB908F46FEF3195889400C0B7
:1004300000C0002C8BB9E0FC260F00C0002C7BB95B
:1004400000C015FF8BB927958894E1FC260F00C0EA
:1004500000C0002C8BB92795889400C0002C7BB974
:1004600000C014FF8BB9E2FC260F2795889400C0CA
:1004700000C0002C8BB9E3FC260F00C0002C7BB918
:1004800000C013FF8BB927958894E4FC260F00C0A9
:1004900000C0002C8BB92795889400C0002C7BB934
:1004A00000C012FF8BB9E5FC260F2795889400C089
:1004B00000C0002C8BB9E6FC260F00C0002C7BB9D5
:1004C00000C011FF8BB927958894E7FC260F00C068
:1004D00000C0002C8BB92795889400C0002C7BB9F4
:1004E00000C010FF8BB9162FE110122F3A0D00C07B
:1004F00000C0002C8BB900C000C0002C7BB900C02C
:1005000017FF8BB962812227889400C000C0002C9D
:100510008BB96111640F00C0002C7BB900C016FFBD
:100520008BB908F46FEFEB0DF11D00C000C0002C7B
:100530008BB9D0FC260F00C0002C7BB900C015FF82
:100540008BB927958894D1FC260F00C000C0002CE1
:100550008BB92795889400C0002C7BB900C014FF8C
:100560008BB9D2FC260F2795889400C000C0002CC0
:100570008BB9D3FC260F00C0002C7BB900C013FF41
:100580008BB927958894D4FC260F00C000C0002C9E
:100590008BB92795889400C0002C7BB900C012FF4E
:1005A0008BB9D5FC260F2795889400C000C0002C7D
:1005B0008BB9D6FC260F00C0002C7BB900C011FF00
:1005C0008BB927958894D7FC260F00C000C0002C5B
:1005D0008BB92795889400C0002C7BB900C010FF10
:1005E0008BB9162FD110122F419500C000C0002CDE
:1005F0008BB9480D00C000C07BB900C017FF8BB994
:1006000061812227889400C000C0002C8BB9611141
:10061000690F00C0002C7BB900C016FF8BB908F42D
:100620006FEF9195889400C000C0002C8BB9F0FC4E
:10063000260F00C0002C7BB900C015FF8BB9279591
:100640008894F1FC260F00C000C0002C8BB92795C0
:10065000889400C0002C7BB900C014FF8BB9F2FC59
:10066000260F2795889400C000C0002C8BB9F3FC9E
:10067000260F00C0002C7BB900C013FF8BB9279553
:100680008894F4FC260F00C000C0002C8BB927957D
:10069000889400C0002C7BB900C012FF8BB9F5FC18
:1006A000260F2795889400C000C0002C8BB9F6FC5B
:1006B000260F00C0002C7BB900C011FF8BB9279515
:1006C0008894F7FC260F00C000C0002C8BB927953A
:1006D000889400C0002C7BB900C010FF8BB9162F86
:1006E000F110122F9C0D00C000C0002C8BB9119787
:1006F00009F086CE20EE31E0D2010E946324DC01B5
:10070000CB01F4E0B695A79597958795FA95D1F723
:1007100020E030E0A9016AE9469E412D569E400D39
:10072000511D1124840F951FA11DB11D893E43E069
:100730009407A105B10588F1885E9340A109B1092C
:1007400042E0B695A795979587954A95D1F747E0EA
:10075000849F212D949F200D311D112460916603EB
:1007600070E0860F971F820F931F4091E006509113
:10077000E1066091E2067091E306292F3327420FCC
:10078000531F611D711D4093E0065093E106609375
:10079000E2067093E3068093660378940E94E11961
:1007A000F301708B6787DF91CF911F91FF90EF90DE
:1007B000DF90CF90BF90AF908F907F906F905F90C1
:1007C0004F900895EF92FF920F931F93CF93DF9373
:1007D000EC01909167039F5F292F27702093670397
:1007E00090FF02C090E801C090E021FD9064247069
:1007F00009F0906220E1290FFE013C967E018FE016
:10080000E80EF11C00E011E06191662331F070E028
:10081000C8010E9449246F5F01C060E0DF011497A6
:100820006C93322F369F030E30E0311D1124CF011F
:100830000797311103C0EC01188203C03150EC015D
:100840003883662311F061506C93EE15FF05E1F6D5
:10085000DF91CF911F910F91FF90EF90089580E06D
:1008600090E00895FC01858596850895CF93DF93E8
:1008700000D000D000D0CDB7DEB7AB011C821D8206
:100880001E82DC01ED91FC910190F081E02D198236
:100890001A821B829E012F5F3F4FBE016C5F7F4F0C
:1008A000099526960FB6F894DEBF0FBECDBFDF9137
:1008B000CF91089508950F931F93CF93DF93CDB7F2
:1008C000DEB762970FB6F894DEBF0FBECDBF8C01C6
:1008D000F901DC011C968C917A8369835C834B83DC
:1008E0005E834D8390819D8791819E8792819F87B2
:1008F000813029F4CE0101960E94E20306C01C86D5
:100900001B861A86198618861F82188A1A8A198ADF
:10091000D801ED91FC910484F585E02DBE016F5F57
:100920007F4FC801099562960FB6F894DEBF0FBEDF
:10093000CDBFDF91CF911F910F9108950F931F931A
:10094000CF93DF93CDB7DEB762970FB6F894DEBFD3
:100950000FBECDBF8C01F901DC011C968C917A830E
:1009600069835C834B835E834D8390819D879181F6
:100970009E8792819F87813029F4CE0101960E9443
:10098000E20306C01C861B861A86198618861F82FB
:1009900083E0888B1A8A198AD801ED91FC9104842E
:1009A000F585E02DBE016F5F7F4FC8010995629606
:1009B0000FB6F894DEBF0FBECDBFDF91CF911F9170
:1009C0000F9108950C9416270F931F93CF93DF93E5
:1009D00000D01F92CDB7DEB78091E302880F880F59
:1009E00089838FEF8B8380EF8A830CE414E0B80156
:1009F000CE0101960E94161B8981895F89830D5F54
:100A00001F4F84E00037180791F70F900F900F9059
:100A1000DF91CF911F910F9108951F93CF93DF9393
:100A200000D000D000D0CDB7DEB71091E302212F67
:100A3000220F220F220F30E0AAE0B0E00E943C28F3
:100A40002FEF30E040E050E00E94F027BA01A9010A
:100A50004F5F5F4F6F4F7F4F8091D306841314C059
:100A6000198386E98A838CED8B83BE016C5F7F4F8F
:100A7000CE0101960E94161BBE016C5F7F4F8CE079
:100A800090E00E94921603C08BEE0E94E916269613
:100A90000FB6F894DEBF0FBECDBFDF91CF911F918F
:100AA0000895CF93DF9300D01F92CDB7DEB780912A
:100AB000E30281508133B0F419821A821B82BE0195
:100AC0006F5F7F4F8CE090E00E9492168FEF8983DA
:100AD0008A838B838091D306BE016F5F7F4F90E046
:100AE0000E9492168091E30283538033D0F41982DE
:100AF0001A821B82BE016F5F7F4F8CE090E00E94E4
:100B0000921688E789838A838B838091E3026CE065
:100B10000E943D24BE016F5F7F4F892F90E00E94AD
:100B200092168091E30285568033A8F419821A82C6
:100B30001B82BE016F5F7F4F8CE090E00E94921697
:100B40008FEF89831A821B82BE016F5F7F4F8CE01B
:100B500090E00E9492168091E30287598033A8F4B6
:100B600019821A821B82BE016F5F7F4F8CE090E07A
:100B70000E94921619828FEF8A831B82BE016F5FDB
:100B80007F4F8CE090E00E9492168091E302895C96
:100B90008633A8F419821A821B82BE016F5F7F4FD1
:100BA0008CE090E00E94921619821A828FEF8B835C
:100BB000BE016F5F7F4F8CE090E00E9492160F9015
:100BC0000F900F90DF91CF910895CF93DF9300D0D6
:100BD00000D000D0CDB7DEB72091D30630E0AFEF24
:100BE000B0E00E943C282CE030E040E050E00E9461
:100BF000F0278091E302880F280F298388EC8A83ED
:100C00008FEF8B83BE016C5F7F4FCE0101960E94F8
:100C1000161BBE016C5F7F4F8CE090E00E94921625
:100C200026960FB6F894DEBF0FBECDBFDF91CF91F1
:100C30000895CF92DF92EF92FF92CF93DF9300D08F
:100C400000D000D0CDB7DEB785EF0E94E9160E9434
:100C5000C918C090D904D090DA04E090DB04F09079
:100C6000DC04AB01BC014C195D096E097F09809160
:100C7000080190E0A0E0B0E084179507A607B70749
:100C800008F05EC08091060190910701E5E0F8E070
:100C90008E9FA0018F9F500D9E9F500D1124475E87
:100CA000594C9A01ACE0B0E00E943C286C01EE2463
:100CB000FF242091E3024E9FC0014F9F900D5E9F45
:100CC000900D1124875E994C909307018093060143
:100CD000890F30E4839FC0011124822F890F8983FB
:100CE00088EC8A838FEF8B83BE016C5F7F4FCE01D0
:100CF00001960E94161B3C81F601EE0FFF1FCF01EB
:100D00008C0D9D1DFC01E45BFB4F2081230F08F43B
:100D10002FEF20833D812181230F08F42FEF2183C2
:100D20003E812281230F08F42FEF22830E94C918ED
:100D30006093D9047093DA048093DB049093DC040D
:100D400026960FB6F894DEBF0FBECDBFDF91CF91D0
:100D5000FF90EF90DF90CF9008950F931F930E9424
:100D6000C9180091D9041091DA042091DB04309164
:100D7000DC04AB01BC01401B510B620B730B809177
:100D8000080190E0A0E0B0E084179507A607B70738
:100D900008F040C08091D306982F9095609106018D
:100DA0007091070125E038E0629FA001639F500D1C
:100DB000729F500D11249A01275E394C3093070120
:100DC00020930601230F299F90011124830F80FD9A
:100DD00002C080E090E080936D0480936E04809365
:100DE0006F0480E090E0FC01E45BFB4F23812083F3
:100DF000248121832581228303968132910599F7ED
:100E00000E94C9186093D9047093DA048093DB04BC
:100E10009093DC041F910F910895FF920F931F93FD
:100E2000CF93DF9300D01F92CDB7DEB70E94C918D1
:100E30000091D9041091DA042091DB043091DC0494
:100E4000DC01CB01801B910BA20BB30B893E9340BD
:100E5000A105B10540F1809102018823D1F0809174
:100E6000040190910501019790930501809304017D
:100E700020E030E0A90168EC70E089E00E94DB0B23
:100E800064E670E080E090E00E94061A89E00E942B
:100E9000B30B0E94C9186093D9047093DA0480934D
:100EA000DB049093DC0419821A821B82BE016F5FFF
:100EB0007F4F8CE090E00E94921600E010E0FF244B
:100EC000FA9480910401909105010817190764F4C0
:100ED000F982FA82FB82BE016F5F7F4FC8010E94D8
:100EE00092160F5F1F4FEDCF0E94B0168091040144
:100EF000909105011816190614F0109202010F9036
:100F00000F900F90DF91CF911F910F91FF90089557
:100F10000F931F930E94C9180091D9041091DA040D
:100F20002091DB043091DC04DC01CB01801B910BB0
:100F3000A20BB30BC397A105B105E0F0EFE6F4E017
:100F4000DF0115978C9113968C9312978C911396C1
:100F50008C9312978C918083FD01AE54B44081F73D
:100F60000E94C9186093D9047093DA048093DB045B
:100F70009093DC048091E5028823C9F18FEF809380
:100F80004C0480934D0480934E0423E230E040E013
:100F900050E068E871E089E00E94DB0B63E270E0FA
:100FA00080E090E00E94061A23E230E040E050E04A
:100FB00066E071E089E00E94DB0B63E270E080E0B4
:100FC00090E00E94061A23E230E040E050E066E242
:100FD00071E089E00E94DB0B63E270E080E090E06A
:100FE0000E94061A89E01F910F910C94B30B109286
:100FF0004C0410924D048FEF80934E041F910F917B
:1010000008951F93CF93DF9300D01F92CDB7DEB723
:10101000109173031C3008F075C08091E50288239D
:10102000E1F0E12FF0E0EE0FFF1FEE52FE4F608186
:1010300071812CE231E040E050E089E00E94DB0B5E
:1010400062E370E080E090E00E94061A89E00E946E
:10105000B30B1F5F1093730328C0809171039091AD
:1010600072030196909372038093710340970CF181
:101070001123F9F0115010937303E12FF0E0EE0FFC
:10108000FF1FEE52FE4F608171812CE231E040E0A3
:1010900050E089E00E94DB0B62E370E080E090E0CA
:1010A0000E94061A89E00E94B30B109272031092FC
:1010B000710382E689838EE28A8382E38B83BE0199
:1010C0006F5F7F4F8CE090E00E94921680917303D7
:1010D0008D3018F08CE0809373038091730390E05F
:1010E000EEE4F4E020E030E04FEF2817390754F445
:1010F000DF0112971C9211961C9240832F5F3F4F85
:101100003396F3CF0F900F900F90DF91CF911F91F7
:101110000895EF92FF920F931F93CF93DF93F42ED6
:10112000122F032F87E592E00E949016E12EC12F27
:10113000D02F8C2F8E198F1560F46991E091700477
:10114000F09171040190F081E02D80E794E0099521
:10115000F0CF88E692E00E949016812F902F0E9497
:10116000C22780930801682F70E080E090E04AE099
:10117000DF91CF911F910F91FF90EF900C944F163C
:101180000F931F93CF93DF93D82FC62F890182E748
:1011900092E00E9490166D2F70E080E090E04AE0AF
:1011A0000E944F168FE792E00E949016C434B1F16E
:1011B00024F4C23409F45EC088C0C03521F1C435BE
:1011C00009F083C08CE090E09093050180930401C6
:1011D000C8010E94C2278093E4021092030120E01C
:1011E00030E0A9016CED70E089E00E94DB0B6AE061
:1011F00070E080E090E00E94061A89E00E94B30B44
:1012000084EA92E005C08AE08093030184E992E0D9
:10121000DF91CF911F910F910C94C817809103011A
:10122000843089F020E030E0A9016CED70E089E0C5
:101230000E94DB0B6EE170E080E090E00E94061AF5
:1012400089E00E94B30B84E08093030184EB92E079
:101250000E949016809103010E94B517C8010E9458
:10126000C2279093700380936F03DF91CF911F91FA
:101270000F91089580910301823011F01092E302E2
:10128000C8010E94C22790936E0380936D03C8012A
:101290000E94C2278093E40282E08093030184EBE2
:1012A00092E00E949016809103010E94B51784EC91
:1012B00092E00E94901680916D0390916E03DF91F1
:1012C000CF911F910F910C94B016C8010E94C227B4
:1012D0008093E4022091030130E08C2F0C2E000C4F
:1012E000990B8054910928173907B9F08CE090E0E8
:1012F000909305018093040120E030E0A9016CED9A
:1013000070E089E00E94DB0B6EE170E080E090E02D
:101310000E94061A89E00E94B30BC054C0930301D7
:1013200084EB92E00E94901680910301DF91CF91AF
:101330001F910F910C94B5170895FC01DB018C915E
:101340009081981708F4808311968C911197918160
:10135000981708F4818312968C919281981708F45B
:101360008283CF010895FF920F931F93CF93DF9352
:1013700000D01F92CDB7DEB719821A821B82BE0140
:101380006F5F7F4F8CE090E00E949216A091E30285
:101390008A2F6CE00E943D248091D306981323C0CD
:1013A000A9838FEF8A838B83B0E025EF3FEF4FEF68
:1013B0005FEF0E940F282FEF30E040E050E00E94E6
:1013C000F027DA01C9010B96A11DB11DBC01660F02
:1013D000771F9B01280F391FB901645B7B4FCE013A
:1013E00001960E94161B2091E302A8E7A20F8A2F04
:1013F0006CE00E943D248091D306981324C0220FF4
:1014000029838FEF8A838B83B0E025EF3FEF4FEF87
:101410005FEF0E940F282FEF30E040E050E00E9485
:10142000F027DA01C9010B96A11DB11DBC01660FA1
:10143000771F9B01280F391FB901645B7B4FCE01D9
:1014400001960E94161B0CE414E084E1F82E198228
:10145000FA821B82BE016F5F7F4FC8010E949D0907
:101460000D5F1F4F84E00037180789F70F900F902A
:101470000F90DF91CF911F910F91FF900895DF9210
:10148000EF92FF920F931F93CF93DF9300D000D082
:1014900000D0CDB7DEB78091E302898398EC9A83C0
:1014A0009FEF9B832BE0622F0E943D24291B622F1C
:1014B00070E0CB01880F991F680F791F645B7B4F29
:1014C000CE0101960E94161B80EF0E94E9160CE4E3
:1014D00014E034E2D32E44E6E42E58E2F52ED9820D
:1014E000EA82FB82BE016C5F7F4FCE0101960E94B3
:1014F000161BBE016C5F7F4FC8010E949D090D5FE6
:101500001F4F84E00037180751F726960FB6F8945E
:10151000DEBF0FBECDBFDF91CF911F910F91FF9026
:10152000EF90DF900895409194035091950320919E
:1015300092033091930342175307B4F49091E8005B
:101540009570E1F39091E80092FD19C08093F1004D
:10155000809194039091950301968F739927892B1D
:1015600019F48EEF8093E800809194039091950395
:101570000196909395038093940381E0089580E011
:101580000895CF92DF92EF92FF920F931F93CF9324
:10159000DF931F92CDB7DEB7182F062FE42E862FCC
:1015A000880F8E5F99830E94930A83E00E94930ABA
:1015B000F12EC12E9981D92E8C2D8F19801798F478
:1015C000F601E7FE02C0849101C080810E94930A67
:1015D000182F80E00E94930A8123FFEFCF1ADF0AC1
:1015E0008111EACF01C081E00F90DF91CF911F916F
:1015F0000F91FF90EF90DF90CF900895DF92EF92E0
:10160000FF920F931F93CF93DF93D82E8A017B0114
:10161000E40EF51EEB01CE15DF0571F0D7FE03C019
:10162000FE01849101C088810E94930A2196811154
:10163000F2CF8FEF9FEF01C0C801DF91CF911F91D3
:101640000F91FF90EF90DF900895615030F020915E
:10165000F100FC0120830196F8CF289A84E680935C
:10166000DD030895CF92DF92EF92FF920F931F93C5
:10167000CF93DF936C017A018B01C0E0D0E0CE15EF
:10168000DF0589F0D8016D918D01D601ED91FC91B6
:101690000190F081E02DC6010995892B11F47E019E
:1016A00002C02196ECCFC701DF91CF911F910F911E
:1016B000FF90EF90DF90CF900895FC01918D828D87
:1016C000981761F0828DDF01A80FB11D5D968C9196
:1016D000928D9F5F9F73928F90E008958FEF9FEFA1
:1016E0000895FC01918D828D981731F0828DE80F5D
:1016F000F11D858D90E008958FEF9FEF08950E9472
:10170000AE270F931F93CF93DF931F92CDB7DEB712
:1017100082E0898342E450E065E271E080E80E9463
:10172000FE0A0E946418DC0112960D911C91139719
:101730000115110569F0D801ED91FC910280F3814A
:10174000E02DBE016F5F7F4FC801099597FF07C06D
:1017500089810F90DF91CF911F910F910895F8012A
:1017600000851185E5CF90910901981321C0E4E22D
:10177000F1E0E4919FEF90930901E13071F050F0B6
:10178000E33089F0E430A1F4909172009F7B909354
:1017900072000EC010926E000BC090916F009D7F82
:1017A00090936F0005C0909171009D7F90937100A0
:1017B00060E00C9475193F924F925F926F927F9206
:1017C0008F929F92AF92BF92CF92DF92EF92FF9251
:1017D0000F931F93CF93DF9300D000D0CDB7DEB728
:1017E00029013A0190910901981721F09F3F09F0D2
:1017F00090C204C0E4E2F1E03490AEC080930901ED
:10180000E4E2F1E0E491EF3F09F483C2E13009F44E
:1018100052C01CF5E1119FC014BC15BC94B5926078
:1018200094BD95B5916095BD282F30E0F901E95040
:10183000FF4FE491F0E0EE0FFF1FEA5EFE4F45918F
:10184000549150937D0340937C03F901E852FF4F7C
:10185000E491E0937B03312C81C0E33009F453C061
:10186000E43009F078C01092C0001092C10090914D
:10187000C10098609093C1009091C10091609093D5
:10188000C100482F50E0FA01E950FF4FE491F0E029
:10189000EE0FFF1FEA5EFE4F2591349130937703E0
:1018A00020937603FA01E852FF4FE491E093750329
:1018B000B4E03B2E53C010928000109281009091B2
:1018C0008100986090938100909181009160909345
:1018D0008100282F30E0F901E950FF4FE491F0E05A
:1018E000EE0FFF1FEA5EFE4F4591549150937A032D
:1018F00040937903F901E852FF4FE491E0937803B4
:10190000332433942BC01092900010929100909148
:1019100091009860909391009091910091609093C4
:101920009100282F30E0F901E950FF4FE491F0E0F9
:10193000EE0FFF1FEA5EFE4F4591549150938B03CB
:1019400040938A03F901E852FF4FE491E0938C033E
:1019500003E0302E03C03E2E37FCDBC18B0161E07B
:101960000E94A5194801A12CB12C832D8D7F09F06F
:10197000CCC060E072E18AE790E0A50194010E948A
:10198000F02729833A834B835C8369017A0121E044
:10199000C21AD108E108F1088FEFC816D104E1049A
:1019A000F10409F008F44BC060E472E48FE090E0C9
:1019B000A50194010E94F02769017A0191E0C91AFA
:1019C000D108E108F108E2E03E121FC0FFEFCF1698
:1019D000D104E104F10409F008F4F4C060E970ED09
:1019E00083E090E0A50194010E94F02769017A014B
:1019F00081E0C81AD108E108F1089FEFC916D104A7
:101A0000E104F10409F010F5DDC0EFEFCE16D104CA
:101A1000E104F104B1F0A8F068E478EE81E090E030
:101A2000A50194010E94F02769017A01F1E0CF1A23
:101A3000D108E108F108332009F437C12CC181E055
:101A400001C082E0332009F45BC0BCC068E478EEDA
:101A500081E090E0A50194010E94F02769017A01DC
:101A6000F1E0CF1AD108E108F1082FEFC216D10436
:101A7000E104F10409F008F4A5C064E274EF80E029
:101A800090E0A50194010E94F02769017A0181E0AC
:101A9000C81AD108E108F1089FEFC916D104E10482
:101AA000F10409F008F48EC062E17AE780E090E08A
:101AB000A50194010E94F02769017A0181E0C81A0A
:101AC000D108E108F1089FEFC916D104E104F1043F
:101AD00009F008F4DEC089819A81AB81BC814AE0BB
:101AE000B595A795979587954A95D1F76C017D0196
:101AF000E1E0CE1AD108E108F108311063C085E0B9
:101B000095B5987F892B85BD5DC060E072E18AE75D
:101B100090E0A50194010E94F02769017A01F1E0AB
:101B2000CF1AD108E108F108C114D10421E0E2067E
:101B3000F10488F068E478EE81E090E0A50194017A
:101B40000E94F02769017A0181E0C81AD108E108F2
:101B5000F10883E001C081E091E039120FC090915B
:101B60008100987F892B8093810041145104610486
:101B7000710469F52FEF3FEFA90157C0E3E03E1272
:101B80000FC090919100987F892B80939100411410
:101B9000510461047104D9F42FEF3FEFA90157C03C
:101BA000F4E03F120FC09091C100987F892B809381
:101BB000C100411451046104710449F42FEF3FEF57
:101BC000A90157C0411451046104710471F0D80196
:101BD000AA0FBB1FA30192010E940F2828EE33E039
:101BE00040E050E00E941A2803C02FEF3FEFA90108
:101BF00081E03816D1F083158CF031108AC0C7BC53
:101C0000209386033093870340938803509389037E
:101C100080916E00826080936E007BC093E03916E5
:101C2000B1F0E4E03E1629F174C0D0928900C09270
:101C3000880020938203309383034093840350935E
:101C4000850380916F00826080936F0062C0D092A4
:101C50009900C092980020938D0330938E03409397
:101C60008F03509390038091710082608093710084
:101C700050C0C092CF0020937E0330937F034093E7
:101C8000800350938103809172008064809372007E
:101C900040C086E0D7CEEFEFCE16D104E104F104C8
:101CA00011F008F001CF84E0CDCE8FEFC816D1043B
:101CB000E104F104C9F0C0F062E17AE780E090E06D
:101CC000A50194010E94F02769017A01F1E0CF1A81
:101CD000D108E108F1082FEFC216D104E104F104A4
:101CE00009F020F484E00CCF83E00ACF89819A8147
:101CF000AB81BC812AE0B595A795979587952A95E4
:101D0000D1F76C017D01E1E0CE1AD108E108F108BC
:101D1000F6CE0F900F900F900F90DF91CF911F9103
:101D20000F91FF90EF90DF90CF90BF90AF909F907A
:101D30008F907F906F905F904F903F90089587E0D5
:101D400095E00E94781821E0892B09F420E0822F89
:101D50000895EF92FF920F931F93CF93DF93EC01BF
:101D600081E0888F9B8D8C8D981305C0E889F98957
:101D7000808185FD24C0F62E0B8D10E00F5F1F4F74
:101D80000F731127E02E8C8DE8120CC00FB607FCE4
:101D9000FACFE889F989808185FFF5CFCE010E94CD
:101DA0001719F1CF8B8DFE01E80FF11DE35AFF4F9C
:101DB000F0820B8FEA89FB898081806207C0EE89FF
:101DC000FF896083E889F98980818064808381E06C
:101DD00090E0DF91CF911F910F91FF90EF900895C8
:101DE000CF93DF93EC01888D8823C9F0EA89FB89C2
:101DF000808185FD05C0A889B9898C9186FD0FC0B9
:101E00000FB607FCF5CF808185FFF2CFA889B9898D
:101E10008C9185FFEDCFCE010E941719E7CFDF919E
:101E2000CF9108951F920F920FB60F9211248F93A6
:101E30009F938091E1009091E100937F9093E10066
:101E400083FF0FC01092E90091E09093EB00109295
:101E5000EC0092E39093ED001092DE0398E09093F3
:101E6000F00082FF20C093E09093E9009091F2008F
:101E7000992319F09AE39093E800909174039923C1
:101E800039F090917403915090937403992389F1E0
:101E90009091DD03992339F09091DD039150909357
:101EA000DD03992341F184FF10C08091E2008E7E12
:101EB00081608093E2008091E1008F7E8093E10059
:101EC0008091E1028E7E806111C080FF16C08091FA
:101ED000E2008E7E80618093E2008091E1008E7E40
:101EE0008093E1008091E1028E7E81608093E10227
:101EF00004C05D98CDCF2898D6CF9F918F910F9039
:101F00000FBE0F901F9018951F920F920FB60F9251
:101F10001124CF92DF92EF92FF920F931F932F9392
:101F20003F934F935F936F937F938F939F93AF9361
:101F3000BF93EF93FF93CF93DF93CDB7DEB76C974B
:101F4000DEBFCDBF1092E9008091E80083FFFAC1A7
:101F500068E0CE0145960E94250B82EF8093E80051
:101F60008D8987FF05C09091E80090FFFCCF03C0EA
:101F70009EEF9093E800982F907609F0C6C09E8956
:101F80002F89188D91110CC0803829F48091E202BC
:101F90008093F10002C01092F1001092F10047C14D
:101FA000422F50E0512B913051F4811140C141300A
:101FB000510509F03CC18091E2028D7F0BC0933046
:101FC00061F4811134C14130510509F030C1809173
:101FD000E20282608093E2022AC1953041F480914E
:101FE000E80080FFFCCF20682093E30020C19630FA
:101FF00009F05FC0EB8CFC8C1092E9001092950305
:1020000010929403123091F5109293031092920360
:102010000E94810B99E0BE016F5F7F4FDB01E92FCA
:102020001D92EA95E9F799831A8391E09E8390EADD
:1020300098879AEF99872091940330919503275FB1
:102040003F4F3C832B838D831092E90010929503C0
:1020500010929403F0929303E092920349E050E0CF
:1020600080E00E94FE0A0E94810BE1C0F09293037F
:10207000E09292030E946418DC011296ED90FC90AD
:102080001397E114F10409F4C0C0D701ED91FC915C
:102090000480F581E02DBE016B5E7F4FC70109957D
:1020A000009719F00CF0C3C0C6C0F701E084F184BA
:1020B000E8CF973009F4BFC0983021F481E08093D5
:1020C000F100B5C0993009F0B2C0837009F0B3C017
:1020D000EBEEF1E081E021E036E39081992361F0BD
:1020E0008093E9002093EB0091919093EC00309362
:1020F000ED008F5F873089F78EE78093EA001092BA
:10210000EA008F898093DE0392C08B8D9C8D1092A4
:10211000E900109295031092940390939303809397
:102120009203898D811156C08E899D89913A59F407
:10213000813209F080C047E050E06EE071E080E05D
:102140000E94FE0A74C0913209F075C0833289F48E
:10215000888D90E0982F88272F89822BA0E0B0E00F
:1021600080930A0190930B01A0930C01B0930D0191
:102170005EC0803269F48091E80082FFFCCF67E0A6
:102180008EE091E00E94250B8BEF8093E80006C063
:10219000823209F04CC08F89809315018091E00252
:1021A000882319F0EEEFFAE002C0E0E0F8E0809159
:1021B0000E0190910F01A0911001B0911101803B8F
:1021C0009440A105B10509F088C08091150180FFF8
:1021D000A0C083C00E946418DC0112960D911C916E
:1021E00013970115110539F1D801ED91FC9101907A
:1021F000F081E02DBE016B5E7F4FC8010995811112
:1022000016C0F80100851185ECCF1130C1F01330F4
:1022100091F48F89882309F455C08230E9F440E8AD
:102220006DE087E791E00E94C10A882321F08EEFDC
:102230008093E80087C081E28093EB0083C08B8DA0
:102240009C8D089711F41093910380919103811153
:1022500036C065E871E038C0813029F440E86BE0B1
:102260008BE691E0E0CF833031F70E946418DC0107
:102270001296ED90FC9013978E010F5F1F4F68012F
:10228000E114F10479F0D701ED91FC910680F7811A
:10229000E02DB801C7010995080F111DF701E08471
:1022A000F184EECFD8011C92F60101900020E9F7ED
:1022B0003197BF016C197D0940E0C601B4CF67E9D1
:1022C00071E002C067E671E06115710509F4B3CFF2
:1022D000FB01449150E080E833CF0FB6F894A89505
:1022E00080916000886180936000109260000FBE52
:1022F000A895EE3F2AE0F20739F08091FE0A90910E
:10230000FF0A9183808393CF1092FF0A1092FE0AF6
:102310008ECFEE3F8AE0F80731F080819181909373
:10232000FF0A8093FE0A87E797E7918380839BE00B
:1023300088E10FB6F894A895809360000FBE909343
:10234000600075CF6C960FB6F894DEBF0FBECDBFA0
:10235000DF91CF91FF91EF91BF91AF919F918F91BD
:102360007F916F915F914F913F912F911F910F91AD
:10237000FF90EF90DF90CF900F900FBE0F901F90C7
:1023800018951F920F920FB60F9211242F933F931F
:102390008F939F93AF93BF93EF93FF9380918D03A0
:1023A00090918E03A0918F03B0919003892B8A2B7B
:1023B0008B2B51F180918C03E0918A03F0918B0378
:1023C00090818927808380918D0390918E03A091C5
:1023D0008F03B0919003181619061A061B064CF5C8
:1023E00080918D0390918E03A0918F03B091900303
:1023F0000197A109B10980938D0390938E03A09357
:102400008F03B093900315C0809171008D7F8093EE
:10241000710090918C03E0918A03F0918B0380818D
:10242000282F30E0892F90E0809590958223932388
:102430008083FF91EF91BF91AF919F918F913F91D9
:102440002F910F900FBE0F901F9018951F920F9213
:102450000FB60F9211242F933F934F935F936F9377
:102460007F938F939F93AF93BF93EF93FF9387E0F7
:1024700095E00E941719FF91EF91BF91AF919F9145
:102480008F917F916F915F914F913F912F910F901D
:102490000FBE0F901F9018951F920F920FB60F92BC
:1024A00011242F938F939F93EF93FF93E091170540
:1024B000F09118058081E0911D05F0911E0582FDC7
:1024C00012C09081809120058F5F8F73209121052C
:1024D000821751F0E0912005F0E0E95FFA4F958F07
:1024E0008093200501C08081FF91EF919F918F9192
:1024F0002F910F900FBE0F901F90189585ED809330
:10250000BC008091BC0084FDFCCF1092270408958C
:102510000895E091E0038091DF03E81730F4F0E0E4
:10252000EF51FC4F808190E008958FEF9FEF089569
:102530000F931F93CF93DF938C01EB0188E2FB0194
:1025400011928A95E9F74BE050E065ED72E0CE011B
:102550000E94B3271B8641E050E060E070E04C87AA
:102560005D876E877F87F80185899689A789B08DF9
:10257000888B998BAA8BBB8B4C8B5D8B6E8B7F8BE7
:102580001CA21DA21EA21FA2188E198E1A8E1B8EAF
:102590001C8E1D8E1E8E1F8E18A219A21AA21BA29F
:1025A000DF91CF911F910F910895AF92BF92CF927B
:1025B000DF92EF92FF920F931F93CF93DF93FC0173
:1025C000258D2F3F39F46EBD00000DB407FEFDCF01
:1025D0008EB543C0D62EEC0107E010E0B12CEE24FE
:1025E000E394F12CBB0C60E08D8D0E947519B7014E
:1025F000002E01C0660F0A94EAF76D218B8D0E94B0
:10260000751961E08D8D0E9475192C8D30E0F901EE
:10261000E954FE4F8491F901E852FF4FA490F9016B
:10262000E950FF4FC490CC2071F081110E943819FD
:10263000EC2DF0E0EE0FFF1FE755FE4FA591B49192
:10264000EC91AE2231F40150110908F0CBCF8B2D63
:1026500004C08B2D8160B82EF6CFDF91CF911F91F2
:102660000F91FF90EF90DF90CF90BF90AF900895C3
:1026700008958CBD9DBD08951F93CF93DF93EC010A
:10268000162F8A8D8F3FF9F4898D91E0909328045D
:1026900080934A041092290410924B048DEC94E02C
:1026A0000E94680181E00E940D17898D61E070E051
:1026B000082E000C990B0E946A178DEC94E00E9482
:1026C0001701182F19C08D8D8F3F21F482E591E0FD
:1026D0000E94391360E08A8D0E947519612F60682D
:1026E000CE010E94D51260E0CE010E94D512182FB3
:1026F00061E08A8D0E947519812FDF91CF911F9122
:1027000008958F929F92AF92BF92CF92DF92EF92F5
:10271000FF920F931F93CF93DF93EC018B0184E221
:10272000FB0111928A95E9F784E290E0A0E0B0E025
:10273000FB0180839183A283B3838D899E89AF89B6
:10274000B88D84839583A683B78381E090E0A0E071
:10275000B0E080879187A287B387108A118A128A96
:10276000138A8A8D8F3F09F054C0898D91E0909330
:10277000280480934A041092290410924B0468EABA
:102780008DEC94E00E94680181E00E940D17898D14
:1027900066E070E0082E000C990B0E946A178DEC21
:1027A00094E00E9417019C838B838DEC94E00E943F
:1027B000170120E030E0382F8B819C81282B392BAA
:1027C0003C832B838DEC94E00E9417019E838D83C4
:1027D0008DEC94E00E94170120E030E0382F8D81CD
:1027E0009E81282B392B3E832D838DEC94E00E9413
:1027F000170198878F838DEC94E00E94170120E0E9
:1028000030E0382F8F819885282B392B38872F83FC
:1028100043C08D8D8F3F21F482E591E00E943913F2
:1028200060E08A8D0E94751968EECE010E94D51273
:102830006FEFCE010E94D51290E09C838B836FEFE7
:10284000CE010E94D5122B813C81382B3C832B83F7
:102850006FEFCE010E94D51290E09E838D836FEFC3
:10286000CE010E94D5122D813E81382B3E832D83CF
:102870006FEFCE010E94D51290E098878F836FEFA3
:10288000CE010E94D5122F813885382B38872F83AF
:1028900061E08A8D0E94751963E2CE010E943C13AB
:1028A00090E024E0959587952A95E1F78370992724
:1028B0008330910599F08230910551F08130910576
:1028C00051F061E070E0892B59F46CEF7FE308C0B0
:1028D00060E070E105C06EEF7FE102C065E575E084
:1028E00080E090E00E945D256B017C016B817C8122
:1028F000072E000C880B990B0E945F25A7019601FB
:102900000E94EB244B015C0169877A878B879C8747
:102910006D817E81072E000C880B990B0E945F252C
:10292000A70196010E94EB246D877E878F87988B85
:102930006F817885072E000C880B990B0E945F250C
:10294000A70196010E94EB24698B7A8B8B8B9C8B61
:102950002AE038EE4CE151E4C501B4010E94F025B3
:10296000F801648B758B868B978B2AE038EE4CE1EF
:1029700051E46D857E858F8598890E94F025F80148
:10298000608F718F828F938F2AE038EE4CE151E493
:1029900069897A898B899C890E94F025F801648F66
:1029A000758F868F978F80E0DF91CF911F910F9168
:1029B000FF90EF90DF90CF90BF90AF909F908F905F
:1029C00008951F920F920FB60F9211242F933F93E9
:1029D0004F935F936F937F938F939F93AF93BF9327
:1029E000EF93FF938091B900887F803609F49CC0F3
:1029F00068F5883209F45BC090F4803109F454C062
:102A000038F4882309F4F6C0883009F44DC0F6C0C4
:102A1000883109F44CC0803209F45DC0EFC08034C5
:102A200009F468C048F4803309F455C0883309F0CC
:102A3000E5C080932504D8C0803509F44FC088359F
:102A400009F45DC0883409F0D9C0D6C0883909F4CA
:102A5000C7C0A8F4883709F467C038F4883609F489
:102A600063C0803709F460C0C9C0883809F4B8C0B1
:102A7000803909F45FC0803809F0C0C05BC0803B7A
:102A800009F486C038F4803A09F466C0883A09F43B
:102A90007FC0B4C0803C09F4A7C0883C09F4A4C03E
:102AA000883B09F48AC0AAC08091020410C09091AA
:102AB000240480912304981770F5E091240481E0A8
:102AC0008E0F80932404F0E0ED5FFB4F80818093B4
:102AD000BB0085EC86C0809325048EC0E091240461
:102AE00081E08E0F809324048091BB00F0E0ED5FC5
:102AF000FB4F808390912404809123046EC0E09169
:102B0000240481E08E0F809324048091BB00F0E0C8
:102B1000ED5FFB4F80838091260481116DC081E0C1
:102B20008093010484EA61C083E0809327041092BB
:102B3000DC03CFCF8091DC03803208F051C0E091FC
:102B4000DC0381E08E0F8093DC038091BB00F0E01A
:102B5000E454FC4F8083BDCF85EC8093BC00109281
:102B600027048091DC03803230F4E091DC03F0E054
:102B7000E454FC4F10826091DC0370E0E091BA03F2
:102B8000F091BB038CEB93E009951092DC0336C007
:102B900084E0809327041092B9031092B803E09167
:102BA000B603F091B70309958091B803811105C070
:102BB00081E08093B80310929603E091B90381E01D
:102BC0008E0F8093B903F0E0EA56FC4F808180932A
:102BD000BB009091B9038091B803981708F479CF9E
:102BE00085E88093BC000AC085EC8093BC001092FD
:102BF000270404C0109225040E947E12FF91EF91D9
:102C0000BF91AF919F918F917F916F915F914F9104
:102C10003F912F910F900FBE0F901F9018954091EC
:102C2000B803262F30E0240F311D21323105DCF4AA
:102C3000209127042430C9F4FC0180E090E086173D
:102C400058F43091B8032191DC01AA56BC4FA30F70
:102C5000B11D2C930196F3CF8091B803680F609358
:102C6000B80380E0089581E0089582E00895BC01F2
:102C7000009791F0FC0101900020E9F73197AF0136
:102C8000481B590BE0917004F09171040280F381AC
:102C9000E02D80E794E0099480E090E008958F9221
:102CA0009F92AF92BF920F931F93CF93DF93CDB7B5
:102CB000DEB7A1970FB6F894DEBF0FBECDBF19A245
:102CC000423008F44AE08E010F5D1F4F842E912C94
:102CD000A12CB12CA50194010E941A28E62FB9015C
:102CE000CA0101501109EA3014F4E05D01C0E95C49
:102CF000D801EC93232B242B252B61F7C8010E94CC
:102D00003716A1960FB6F894DEBF0FBECDBFDF9188
:102D1000CF911F910F91BF90AF909F908F9008958A
:102D20000C943716CF93DF93DB01EEE4F4E020E060
:102D300030E0281739078CF44C91EF012297488333
:102D400011964C9111972196488312964C911297A7
:102D500040832F5F3F4F3396ECCFDF91CF910895A3
:102D6000CF92DF92EF92FF92CF93DF936C01990F96
:102D7000EE08FF08F7FE1AC0E0917004F0917104AC
:102D80000190F081E02D6DE280E794E00995EC017F
:102D900066277727CB016C197D098E099F094AE0C8
:102DA0000E944F167C01EC0EFD1E06C04AE0C701D2
:102DB000B6010E944F167C018CED92E00E943716FE
:102DC0008E0D9F1DDF91CF91FF90EF90DF90CF9000
:102DD0000895CF93DF93382FECE4F4E0AEE4B4E051
:102DE0002081239F020E20E0211D2083ED012A91E6
:102DF000239F020E20E0211D28832C91239F020E89
:102E000020E0211D2C9311243396139684E0E037A3
:102E1000F80731F7DF91CF910895382F20914B04B7
:102E200090914A04213208F049C080912704811111
:102E3000FCCF42E040932704309326043FEF3093C9
:102E400025041092240420932304AAE2B4E043E072
:102E500054E0FA013E2F341B321718F43D913193A0
:102E6000F9CF1092020420910204990F922B9093B3
:102E7000020490910104913061F410920104909148
:102E800002049093BB009091BC0093FDF8CF95ECA9
:102E900001C095EE9093BC00909127049230E1F32D
:102EA000909125049F3F79F080912504803241F074
:102EB00080912504803331F084E005C081E003C0B7
:102EC00082E001C083E01092290410924B0410921A
:102ED00028040895909127049111FCCF613208F0E5
:102EE00060E291E090932704909326042FEF2093C3
:102EF000250410922404260F2093230490930204A7
:102F000090910204880F892B809302048091010420
:102F1000813061F410920104809102048093BB001F
:102F20008091BC0083FDF8CF85EC01C085EE8093D5
:102F3000BC00809127048130E1F38091240486173E
:102F400010F460912404A3E0B4E021EE33E0F90131
:102F50008E2F821B861718F48D918193F9CF1092D2
:102F6000E0036093DF03862F0895CF93DF93682FEC
:102F700070E080E090E04AE00E944F16EC018CED9A
:102F800092E00E9437168C0F9D1FDF91CF9108951C
:102F9000CF93DF930E943716EC018CED92E00E94F4
:102FA00037168C0F9D1FDF91CF910895CF93DF933C
:102FB000C82FD62F8091FF048F3FD1F48091FE045B
:102FC00091E09093280480934A041092290410926F
:102FD0004B046C2F8DEC94E00E9468016D2F8DECFA
:102FE00094E00E94680181E0DF91CF910C940D176D
:102FF000809102058F3F21F482E591E00E94391310
:1030000060E08091FF040E9475196C2F6F7785EE48
:1030100094E00E94D5126D2F85EE94E00E94D512A7
:1030200061E08091FF040E947519809102058F3F35
:1030300021F4DF91CF910C943813DF91CF91089553
:10304000E4EAF5E020E030E0908191110CC0F90154
:10305000EE0FFF1F2E0F3F1FF901EC55FA4F808333
:103060007283618308952F5F3F4F33962A30310575
:1030700059F70895FC018091DE03811103C08FEFA1
:103080009FEF08959FB7F89482E08093E900209124
:10309000F20030E01216130614F421E030E021159E
:1030A000310559F0289A84E68093DD038091F10080
:1030B00080838091F200882319F09FBFC901089591
:1030C0008BE68093E800F9CF8091D80681110DC07E
:1030D00082E08093D40684E08093D5061092D706D0
:1030E0001092D60681E08093D80684ED96E008958C
:1030F000FC01918D228D892F90E0805C9F4F821B77
:1031000091098F739927089580E090E0892B29F029
:103110000E949F0E81110C9400000895CF93DF93BD
:103120001F92CDB7DEB76983DC01ED91FC9102807F
:10313000F381E02D41E050E0BE016F5F7F4F0995C4
:103140000F90DF91CF91089583E08093E900809103
:10315000F200882319F08AE38093E8000895FC01C7
:103160008485958597FD0BC09FB7F89482E0809386
:10317000E9008091F2009FBF90E0019608959FB70B
:10318000F89482E08093E9008091F2009FBF90E084
:1031900008952FB7F8946091E0067091E106809150
:1031A000E2069091E3062FBF0895CF93DF931F921D
:1031B000CDB7DEB7FC018485958597FD05C02FEF5F
:1031C0003FEF358724870BC0CE0101960E943A1845
:1031D000019719F4898190E002C08FEF9FEF0F9063
:1031E000DF91CF9108950F931F93CF93DF931F9299
:1031F000CDB7DEB78C01FC018485958597FF0EC0A5
:10320000CE0101960E943A18019719F4298130E005
:1032100002C02FEF3FEFF80135872487F80184853E
:1032200095850F90DF91CF911F910F910895FC012B
:10323000848DDF01A80FB11DA35ABF4F2C91848D3F
:1032400090E001968F739927848FA689B7892C9374
:10325000A089B1898C9180648C93938D848D98130F
:1032600006C00288F389E02D80818F7D80830895D8
:1032700090E0FC013197EF30F105B0F5EA5AFF4FCD
:103280000C945D24809180008F7703C08091800032
:103290008F7D80938000089580918000877FF9CF93
:1032A00084B58F7702C084B58F7D84BD08958091E9
:1032B00090008F7707C0809190008F7D03C0809130
:1032C0009000877F8093900008958091C0008F7751
:1032D00003C08091C0008F7D8093C00008958091CD
:1032E000C200877F8093C20008951F93CF93DF931E
:1032F000282F30E0F901E954FE4F8491F901E8529A
:10330000FF4FD491F901E950FF4FC491CC23C9F08C
:10331000162F81110E943819EC2FF0E0EE0FFF1FDD
:10332000EA5EFE4FA591B4918FB7F894111105C0D4
:103330009C91ED2FE095E92302C0EC91ED2BEC93ED
:103340008FBFDF91CF911F910895CF93DF9390E0CE
:10335000FC01E852FF4F2491FC01E950FF4F84919A
:10336000882361F190E0880F991FFC01E653FF4F1D
:10337000C591D491FC01EA5EFE4FA591B491611113
:1033800009C09FB7F8948881209582238883EC91A7
:103390002E230BC0623061F49FB7F8943881822FDE
:1033A000809583238883EC912E2B2C939FBF06C09E
:1033B0008FB7F894E8812E2B28838FBFDF91CF91B0
:1033C00008953FB7F8948091E5069091E606A091A4
:1033D000E706B091E80626B5A89B05C02F3F19F077
:1033E0000196A11DB11D3FBFBA2FA92F982F882785
:1033F000820F911DA11DB11DBC01CD0142E0660FE0
:10340000771F881F991F4A95D1F708958F929F9231
:10341000AF92BF92CF92DF92EF92FF926B017C014D
:103420000E94E1194B015C01C114D104E104F104D3
:10343000F1F00E94E119DC01CB0188199909AA0970
:10344000BB09883E9340A105B10570F321E0C21A83
:10345000D108E108F10888EE880E83E0981EA11CCF
:10346000B11CC114D104E104F10419F7DDCFFF90C0
:10347000EF90DF90CF90BF90AF909F908F90089586
:103480008F929F92AF92BF92CF92DF92EF92FF9274
:103490000F931F93CF93DF935C016B018A0180919F
:1034A0001501882309F45EC08091DE03882309F4A6
:1034B00059C08091E10280FF05C08091E0008260E8
:1034C0008093E000E8018AEFF82E93E0E92E2FE3E5
:1034D000822E3AE3932E209709F43DC08FB7F894DB
:1034E000E092E9009091E80095FF06C09091F2000B
:1034F000282D291B922F01C090E08FBF91110AC087
:10350000FA94FF2079F161E070E080E090E00E94A1
:10351000061AE1CF292F30E0C217D3070CF49C2FF5
:103520008FB7F894E092E9002091E80025FF11C0E0
:10353000292F30E0C21BD30BF601915020F04191AE
:103540004093F100FACFC20ED31E9091E80095FF90
:1035500013C08FBFC0CF5D9A84E6809374031016AA
:10356000110644F081E090E0F5019383828380E0CE
:1035700090E005C0C80103C09092E800EACFDF9157
:10358000CF911F910F91FF90EF90DF90CF90BF9060
:10359000AF909F908F9008951F920F920FB60F9249
:1035A00011242F933F938F939F93AF93BF93809159
:1035B000E0069091E106A091E206B091E306309119
:1035C000E40623E0230F2D3720F40196A11DB11D41
:1035D00005C026E8230F0296A11DB11D2093E40625
:1035E0008093E0069093E106A093E206B093E30691
:1035F0008091E5069091E606A091E706B091E80675
:103600000196A11DB11D8093E5069093E606A09357
:10361000E706B093E806BF91AF919F918F913F91DC
:103620002F910F900FBE0F901F901895DC01FB019A
:103630004C9111965C91119712967C91342F3F71A9
:10364000330F330F832F880F35E5282F239F020E6A
:1036500020E0211D1124642F6074942F907247FD87
:1036600021C061110BC0911104C0822F8095422F9F
:1036700011C045E5420F30E02BEA33C091110DC077
:10368000382F4AEA349F030E30E0311D11248BEAB3
:10369000831B420F282F30E024C080E0422F40954A
:1036A000322F0EC0611111C091110CC0382F2AEABF
:1036B000329F030E30E0311D11244BEA431B3B5A6D
:1036C00020E00FC0322F30950BC0911104C085E56A
:1036D000820F3BEA03C08AEA820F90E0321B282F58
:1036E00040E05F3F11F15523E9F0222321F0259FAF
:1036F000020E20E0211D442321F0459F040E40E0EE
:10370000411D332321F0359F030E30E0311D11247C
:103710005095559F050E50E0511D1124250F450F62
:10372000350F03C03FEF4FEF2FEF7F3F09F420C06D
:1037300050E0772321F0779F512D09F05F5F5523EB
:10374000A1F0222321F0259F020E20E0211D442319
:1037500021F0459F040E40E0411D332321F0359FA9
:10376000030E30E0311D112403C030E040E020E0C2
:103770002083418332830895CF93DF9300D000D01C
:103780001F92CDB7DEB7789484B5826084BD84B5CE
:10379000816084BD85B5826085BD85B5816085BD4C
:1037A00080916E00816080936E0010928100809104
:1037B000810082608093810080918100816080938C
:1037C00081008091800081608093800080919100D1
:1037D000826080939100809191008160809391003C
:1037E000809190008160809390008091C1008460FE
:1037F0008093C1008091C10082608093C10080915C
:10380000C10081608093C1008091C300816080937A
:10381000C3008091C00082608093C0008091C2008C
:1038200081608093C20080917A00846080937A00E6
:1038300080917A00826080937A0080917A00816022
:1038400080937A0080917A00806880937A00109249
:10385000DE031092E2021092E1028091D7008160B3
:103860008093D70080EA8093D80089B5806189BDB4
:1038700089B5826089BD09B400FEFDCF61E070E0CA
:1038800080E090E00E94061A8091D8008F7C8061D1
:103890008093D8008091E000807F8093E000809149
:1038A000E1008E7E8093E1008DE08093E200559AE6
:1038B000209A5D982898EEEFFFE7859194918B3FD1
:1038C0009C4D19F481E08093E0028091D3060E9420
:1038D000B51768EE73E080E090E00E94061A8091D0
:1038E000F902811145C01092EB021092EA028FEFAB
:1038F0008093EE028093EF028093F0028093F102B6
:103900008093F2028093F30281E08093F40210929C
:10391000F6021092F5021092ED021092EC028091E4
:10392000080390910903892B31F488EE92E090937B
:10393000090380930803E091E602F091E7023097D3
:1039400021F088EE92E09583848388EE92E0909354
:10395000E7028093E6021092F8021092F70284E3E5
:1039600091E09093E9028093E80281E08093F9026C
:10397000E091E802F091E9020480F581E02D88EE03
:1039800092E009958CE494E09093EB028093EA0234
:103990008CE090E09093F6028093F502E091E802CB
:1039A000F091E9020284F385E02D88EE92E009951A
:1039B000009729F19C0140E050E060E472E48FE060
:1039C00090E00E94F027722F632F0091C3041091A2
:1039D000C4042091C5043091C604872F962FDA01C4
:1039E00080179107A207B30710F4D901C80180938B
:1039F000C3049093C404A093C504B093C6048FEF8E
:103A00008093EE0290EB9093EF0290EF9093F00290
:103A10008093C004E0911705F091180582E080833F
:103A2000E0911305F09114051082E0911505F091D5
:103A3000160587E6808310921F05E0911B05F09123
:103A40001C0586E08083E0911905F0911A058081BC
:103A500080618083E0911905F0911A05808188606A
:103A60008083E0911905F0911A0580818068808338
:103A7000E0911905F0911A0580818F7D80838FEF89
:103A80009FEF90937D0480937C041092C206109265
:103A9000C3061092C5061092C4061092C806109272
:103AA000C9068091D1069091D2068F3FAFEF9A0759
:103AB00041F061E00E94A51960E08091D1060E946A
:103AC000751960EC78E081E40E94201860EC78E0E1
:103AD00082E40E94201860EC78E083E40E942018C1
:103AE00060EC78E084E40E94201860EC78E085E4E3
:103AF0000E94201860EC78E086E40E94201860ECB8
:103B000078E087E40E94201860EC78E088E40E9466
:103B1000201860EC78E089E40E94201860EC78E0DE
:103B200084E50E94201860EC78E080E50E9420186F
:103B300069E878E088E50E94201888E18093FE0417
:103B40008091FF048F3F41F51092E0031092DF0354
:103B50001092290410924B041092270481E0809364
:103B600026041092010461E082E00E94751961E070
:103B700083E00E9475198091B9008E7F8093B9000F
:103B80008091B9008D7F8093B90088E48093B8005C
:103B900085E48093BC004EC061E00E94751961E02D
:103BA0008091FF040E94A519809102058F3F09F0C2
:103BB00034C01FB7F89480910103811127C0E8E059
:103BC000F1E08491E9EEF0E09491E82FF0E0EE0F5F
:103BD000FF1FE653FF4FA591B491EC91E92321F427
:103BE00061E081E10E94751961E081E10E94A519FF
:103BF0008CB580618CBD8CB580648CBD61E08FE03C
:103C00000E94A51961E080E10E94A519809101033D
:103C10008F5F809301031FBF0DC061E00E94A51953
:103C200061E0809100050E94A51960E08091010586
:103C30000E94A5196FE085EE94E00E943C13833347
:103C400009F0CAC467E080E20E94D61760E285EE00
:103C500094E00E943C138F70682F606780E20E949E
:103C6000D61768E883E20E94D61760E182E20E94DC
:103C7000D61760E88FE10E94D61763E285EE94E0E4
:103C80000E943C138F7C682F606183E20E94D617EC
:103C90005FE0252E312C8091CE069091CF06DC017D
:103CA000ED91FC910480F581E02D0995892B09F4B3
:103CB0009EC18091CE069091CF06DC01ED91FC91E2
:103CC0000480F581E02D0995892B09F490C180913C
:103CD000CE069091CF06DC01ED91FC910680F78134
:103CE000E02D0995182F0E94C9186093CA06709399
:103CF000CB068093CC069093CD068091C20682308D
:103D000009F46BC030F4882359F0813009F451C0B4
:103D1000D0CF833009F473C0843009F476C0C9CFA2
:103D2000EDEBF6E0ACEBB6E085E001900D928A9504
:103D3000E1F71093C1064091BC06413009F0B9CFBC
:103D4000123009F0B6CF8091BD063091BE068317C0
:103D500009F4AFCF8093C6063093C7069091BF0693
:103D60009093C4062091C0062093C506582F530F88
:103D7000950F920F9093C9064093C2061092C30606
:103D80009091D006391731F0891739F0882329F03E
:103D9000893019F01092C20629C0211104C0B2E086
:103DA000B093C20686CF2B3F08F483CF1092C20691
:103DB00080CFE091C30691E09E0F9093C306F0E0A0
:103DC000EC55FA4F168F8091C906180F1093C9064B
:103DD0008091C50698136DCFE2CF133019F410937C
:103DE000C20667CF1092C2061092C3061092C50693
:103DF0001092C4061092C8061092C9065ACF1093AA
:103E0000C806E4E0E093C20654CF143069F0109283
:103E1000C2061092C3061092C5061092C4061092F4
:103E2000C8061092C906E3C09091C8068091C906E1
:103E30009813EDCF8091C406853009F0B7C0E090AB
:103E4000C5061091C7060091D0068091D1069091C9
:103E5000D2068F3FFFEF9F0731F061E00E94751996
:103E6000C1010197F1F78091CE069091CF06DC0158
:103E7000ED91FC910190F081E02D61E00995809138
:103E8000CE069091CF06DC01ED91FC910190F0817E
:103E9000E02D612F09958091CE069091CF06DC012F
:103EA000ED91FC910190F081E02D602F0995F0904B
:103EB000D0061E0D8091CE069091CF06DC01ED91CB
:103EC000FC910190F081E02D66E009958091CE068D
:103ED0009091CF06DC01ED91FC910190F081E02DF5
:103EE0006E2D09951A5FF10E8091CE069091CF0646
:103EF000DC01ED91FC910190F081E02D62E00995EB
:103F000002EC15E058018091CE069091CF062A2D43
:103F1000201B2E1578F46501DC01ED91FC910190D8
:103F2000F081E02DD5016D915D010995F60180814B
:103F3000F80EE9CFDC01ED91FC910190F081E02DCC
:103F400063E009958091CE069091CF06DC01ED915A
:103F5000FC910190F081E02D6F2D09958091CE06A6
:103F60009091CF06DC01ED91FC910190F081E02D64
:103F700064E009958091D1069091D206019659F09E
:103F80008091CE069091CF06DC01ED91FC910284E8
:103F9000F385E02D09958091D1069091D2068F3F4F
:103FA000BFEF9B0719F060E00E94751904EA15E065
:103FB0006091C406F8018081082E000C990B262F11
:103FC00030E08217930761F40180F281E02D309791
:103FD00039F022EC35E04091C5068091C70609957D
:103FE0000D5F1F4FF5E0023C1F0711F710CF0E9435
:103FF000C9180091DD041091DE042091DF04309196
:10400000E004DC01CB01801B910BA20BB30B8536C6
:104010009105A105B10580F062E473E085EE94E0BE
:104020000E9481130E94C9186093DD047093DE041E
:104030008093DF049093E004C0905E03D0905F0310
:10404000E0906003F090610320E030E0A901C70137
:10405000B6010E94EB25181624F0F7FAF094F7F851
:10406000F09480905A0390905B03A0905C03B09012
:104070005D0320E030E0A901C501B4010E94EB25F9
:10408000181624F0B7FAB094B7F8B094A5019401CB
:10409000C701B6010E947F244B015C01C09056030A
:1040A000D0905703E0905803F090590320E030E09F
:1040B000A901C701B6010E94EB25181624F0F7FAF2
:1040C000F094F7F8F094A7019601C501B4010E949D
:1040D0007F242B013C0180903E0390903F03A090F1
:1040E0004003B09041039B01AC01C501B4010E94A3
:1040F0007E246B017C0120E030E0A9010E94EB25C9
:10410000181624F0F7FAF094F7F8F094C0923A03F6
:10411000D0923B03E0923C03F0923D03A301920155
:10412000C501B4010E947F2420E030E040E05FE35D
:104130000E94F02560933E0370933F0380934003F9
:10414000909341030E94C9180091E1041091E20488
:104150002091E3043091E404DC01CB01801B910B3E
:10416000A20BB30B8A3F9105A105B10520F481E0B4
:10417000809339030DC01092390320E030E040EA0B
:1041800050E4C701B6010E94EB2518160CF4A7C233
:104190008091310381111AC00E94C91860932903CC
:1041A00070932A0380932B0390932C0341E1842E78
:1041B000912CA12CB12C80922D0390922E03A092D1
:1041C0002F03B092300381E0809331030E94C9181D
:1041D0000091290310912A0320912B0330912C0385
:1041E000DC01CB01801B910BA20BB30B00912D03C3
:1041F00010912E0320912F033091300380179107E7
:10420000A207B30708F4BAC00E94C9186093290333
:1042100070932A0380932B0390932C03E091030166
:10422000F0E0EE0FFF1FE454FE4F0190F081E02D0F
:10423000099580910201882359F019821A828FEF23
:104240008B83BE016F5F7F4F8CE494E00E949D09D9
:10425000D090C0048091C3049091C404A091C5047F
:10426000B091C604892B8A2B8B2BE9F00E94E119AF
:1042700000910A0310910B0320910C0330910D0360
:10428000DC01CB01801B910BA20BB30B0091C3048B
:104290001091C4042091C5043091C6048017910781
:1042A000A207B307B8F20E94E11960930A03709362
:1042B0000B0380930C0390930D03E091CB04F091DA
:1042C000CC04309759F04091C7045091C8046091D4
:1042D000C9047091CA048D2D0995D82EE090080369
:1042E000F09009034D2C512C612C712CE114F10438
:1042F00009F08EC180910603909107038C010F5F36
:104300001F4F10930703009306034997ACF10E94D7
:10431000C9186B017C0148EE53E0049FC001059F62
:10432000900D149F900D1124BC01990F880B990BCF
:1043300000910203109103032091040330910503BF
:1043400046015701801A910AA20AB30AA5019401F5
:104350000E941A283093C2042093C10410920703CC
:10436000109206030E94C91860930203709303031E
:1043700080930403909305031092E502809121033A
:10438000811119C00E94C9186093190370931A0310
:1043900080931B0390931C0382E390E0A0E0B0E0C5
:1043A00080931D0390931E03A0931F03B0932003DB
:1043B00081E0809321030E94C91800911903109194
:1043C0001A0320911B0330911C03DC01CB01801BDD
:1043D000910BA20BB30B00911D0310911E032091B2
:1043E0001F033091200380179107A207B30788F0BD
:1043F0000E94C9186093190370931A0380931B03DA
:1044000090931C038091E4028F5F8093E402809379
:10441000E30280911803882309F4DBC00E94C918C5
:104420000091140310911503209116033091170386
:10443000601771078207930708F4CBC00091000151
:1044400010910101D8018C91811106C010921803BE
:104450008FEF0E94B30BBDC08FEF0E94B30B109281
:1044600013031092120398017AE0D9016C912F5F27
:104470003F4F80ED860F8A30A0F480911203909117
:104480001303789FA001799F500D1124862F660F8A
:10449000990BC097840F951F909313038093120379
:1044A000E4CF1092110310921003E2E4F1E080E0F7
:1044B00090E02191261307C0880F991FFC01E65B4D
:1044C000FE4F808105C001968830910591F780E00C
:1044D00080930F039D012F5F3F4F30930101209385
:1044E000000111969C911197933241F48F5F809354
:1044F0000F031296B0930101A0930001E091000117
:10450000F091010180818E3229F43196F0930101FE
:10451000E0930001E0910001F0910101808180535E
:104520008A3040F480930E033196F0930101E093BA
:10453000000103C0B5E0B0930E03E0910001F091DB
:10454000010180818C3229F43196F0930101E093CE
:10455000000160910F03662341F1E0901003F09099
:104560001103970140E050E080910E0390E0049722
:104570007CE0789FF001799FF00D1124E60FF11D8A
:10458000EE0FFF1FE65AFE4F608171818FEF0E9490
:10459000DB0B0E94C918EFEFEE1AFE0ADC01CB011B
:1045A0008E0D9F1DA11DB11D0CC00E94C918209128
:1045B000100330911103DC01CB01820F931FA11D69
:1045C000B11D8093140390931503A0931603B09329
:1045D00017030E9484185FCB8DE392E00E94C817F6
:1045E00020E030E0A90168EC70E089E00E94DB0B7C
:1045F00068EE73E080E090E00E94061A89E00E9475
:10460000B30B68EE73E080E090E00E94061AE8CFFA
:10461000D7011C96CC901C978091C1049091C20444
:104620008436910510F41C961C92D701ED91FC91F3
:10463000828093809D828C8219821A821B82D11083
:1046400019C0D7011D964D915C911E9712966D91E0
:104650007C9113979E012F5F3F4FC701EC81FD8135
:104660000995D7011C96CC921C971496ED90FC905E
:1046700015973CCEF7013996CE0101965C01870172
:10468000045F1F4FDF0113979C902191992001F146
:104690002223F1F0822F90E0A0E0B0E09C01AD0178
:1046A0002F5F3F4F4F4F5F4FC301B2010E942D2438
:1046B0009B01AC01892D90E0A0E0B0E0BC01CD01F0
:1046C0006F5F7F4F8F4F9F4F0E942D24D5018C939A
:1046D000BFEFAB1ABB0AE017F107A1F6B2CF81E03A
:1046E0008093E5020E94C9186093E1047093E2048C
:1046F0008093E3049093E4044BCD0895CF92DF922E
:10470000EF92FF921F93CF93DF93C7E0D5E01B8218
:104710001A8288EE93E0A0E0B0E08C839D83AE83A4
:10472000BF8325EF31E0398328832DEC30E03D87CE
:104730002C872CEC30E03F872E8728EC30E0398B3B
:10474000288B29EC30E03B8B2A8B2AEC30E03D8B28
:104750002C8B2EEC30E03F8B2E8B198E1A8E1B8EFD
:104760001C8EE0E7F4E01382128284839583A68393
:10477000B78325E032E0318320832FEF3FEF358789
:104780002487E0ECF4E01FEF10831282118214867C
:104790001386CC24CA94DC2C7601C782D086E186AD
:1047A000F286EDECF4E01382128284839583A68373
:1047B000B78385E192E09183808380E090E00E945E
:1047C000E8278093D306D093CF06C093CE0680937C
:1047D000D00685E090E09093D2068093D1060E94A7
:1047E000C9186093030570930405809305059093A1
:1047F0000605E5EEF4E085E292E091838083C58AC8
:10480000D68AE78AF08E128F138F148F158F0E942D
:10481000C9186093E1047093E2048093E3049093D9
:10482000E4040E94C9186093DD047093DE04809351
:10483000DF049093E0040E94C9186093D904709338
:10484000DA048093DB049093DC04DF91CF911F9115
:10485000FF90EF90DF90CF900895DB018F939F93AF
:104860000E940F28BF91AF91A29F800D911DA39F21
:10487000900DB29F900D11240895991B79E004C00A
:10488000991F961708F0961B881F7A95C9F780958F
:10489000089597FB072E16F4009407D077FD09D0F2
:1048A0000E946A2407FC05D03EF4909581959F4FA5
:1048B0000895709561957F4F0895EE0FFF1F059045
:1048C000F491E02D09940E943C28B7FF0895821BC3
:1048D000930B0895AA1BBB1B51E107C0AA1FBB1F66
:1048E000A617B70710F0A61BB70B881F991F5A957C
:1048F000A9F780959095BC01CD0108955058BB272C
:10490000AA270E9496240C94B1250E94A32538F072
:104910000E94AA2520F039F49F3F19F426F40C9444
:10492000A0250EF4E095E7FB0C949A25E92F0E9450
:10493000C22558F3BA17620773078407950720F05A
:1049400079F4A6F50C94E4250EF4E0950B2EBA2F1D
:10495000A02D0B01B90190010C01CA01A001112485
:10496000FF27591B99F0593F50F4503E68F11A1631
:10497000F040A22F232F342F4427585FF3CF4695C2
:1049800037952795A795F0405395C9F77EF41F16E4
:10499000BA0B620B730B840BBAF09150A1F0FF0FAE
:1049A000BB1F661F771F881FC2F70EC0BA0F621F9A
:1049B000731F841F48F4879577956795B795F7958A
:1049C0009E3F08F0B0CF9395880F08F09927EE0F1F
:1049D0009795879508950E94FF240C94B1250E9415
:1049E000AA2558F00E94A32540F029F45F3F29F042
:1049F0000C949A2551110C94E5250C94A0250E9445
:104A0000C22568F39923B1F3552391F3951B550BF8
:104A1000BB27AA2762177307840738F09F5F5F4F91
:104A2000220F331F441FAA1FA9F335D00E2E3AF0D0
:104A3000E0E832D091505040E695001CCAF72BD0E8
:104A4000FE2F29D0660F771F881FBB1F2617370739
:104A50004807AB07B0E809F0BB0B802DBF01FF276B
:104A600093585F4F3AF09E3F510578F00C949A2589
:104A70000C94E5255F3FE4F3983ED4F38695779553
:104A80006795B795F7959F5FC9F7880F911D969524
:104A9000879597F90895E1E0660F771F881FBB1F80
:104AA000621773078407BA0720F0621B730B840B2D
:104AB000BA0BEE1F88F7E0950895E89409C097FBBC
:104AC0003EF490958095709561957F4F8F4F9F4FE5
:104AD0009923A9F0F92F96E9BB279395F695879529
:104AE00077956795B795F111F8CFFAF4BB0F11F4EC
:104AF00060FF1BC06F5F7F4F8F4F9F4F16C0882393
:104B000011F096E911C0772321F09EE8872F762FC8
:104B100005C0662371F096E8862F70E060E02AF009
:104B20009A95660F771F881FDAF7880F96958795F5
:104B300097F9089597F99F6780E870E060E008951D
:104B40009FEF80EC089500240A94161617061806A5
:104B50000906089500240A94121613061406050681
:104B60000895092E0394000C11F4882352F0BB0F12
:104B700040F4BF2B11F460FF04C06F5F7F4F8F4F75
:104B80009F4F089557FD9058440F551F59F05F3FB0
:104B900071F04795880F97FB991F61F09F3F79F05F
:104BA00087950895121613061406551FF2CF4695E1
:104BB000F1DF08C0161617061806991FF1CF869563
:104BC0007105610508940895E894BB276627772747
:104BD000CB0197F908950E945D2608F48FEF0895A0
:104BE0000E9403260C94B1250E94A32538F00E9450
:104BF000AA2520F0952311F00C949A250C94A02559
:104C000011240C94E5250E94C22570F3959FC1F3F1
:104C1000950F50E0551F629FF001729FBB27F00D6A
:104C2000B11D639FAA27F00DB11DAA1F649F6627BF
:104C3000B00DA11D661F829F2227B00DA11D621F0E
:104C4000739FB00DA11D621F839FA00D611D221FC8
:104C5000749F3327A00D611D231F849F600D211DAC
:104C6000822F762F6A2F11249F5750409AF0F1F02F
:104C700088234AF0EE0FFF1FBB1F661F771F881F98
:104C800091505040A9F79E3F510580F00C949A2511
:104C90000C94E5255F3FE4F3983ED4F38695779531
:104CA0006795B795F795E7959F5FC1F7FE2B880F3E
:104CB000911D9695879597F90895990F0008550FBE
:104CC000AA0BE0E8FEEF16161706E807F907C0F092
:104CD00012161306E407F50798F0621B730B840B9A
:104CE000950B39F40A2661F0232B242B252B21F474
:104CF00008950A2609F4A140A6958FEF811D811D14
:104D00000895CF93DF938230910510F482E090E014
:104D1000E091EB06F091EC0620E030E0C0E0D0E05E
:104D2000309711F14081518148175907C0F0481759
:104D3000590761F482819381209719F09B838A83BC
:104D40002BC09093EC068093EB0626C0211531050D
:104D500019F04217530718F49A01BE01DF01EF0161
:104D60000280F381E02DDCCF2115310509F1281BEC
:104D7000390B2430310590F412968D919C91139744
:104D80006115710521F0FB019383828304C0909328
:104D9000EC068093EB06FD01329644C0FD01E20F64
:104DA000F31F81939193225031092D933C933AC084
:104DB0002091E9063091EA06232B41F42091180155
:104DC000309119013093EA062093E90620911601EB
:104DD000309117012115310541F42DB73EB74091AF
:104DE0001A0150911B01241B350BE091E906F0914B
:104DF000EA06E217F307A0F42E1B3F0B281739072A
:104E000078F0AC014E5F5F4F2417350748F04E0F26
:104E10005F1F5093EA064093E9068193919302C085
:104E2000E0E0F0E0CF01DF91CF9108950F931F9361
:104E3000CF93DF93009709F48CC0FC013297138263
:104E400012820091EB061091EC060115110581F418
:104E500020813181820F931F2091E9063091EA066B
:104E60002817390779F5F093EA06E093E90671C04F
:104E7000D80140E050E0AE17BF0750F412962D91D4
:104E80003C911397AD012115310509F1D901F3CFFB
:104E90009D01DA013383228360817181860F971F20
:104EA0008217930769F4EC0128813981260F371F97
:104EB0002E5F3F4F318320838A819B81938382833E
:104EC000452B29F4F093EC06E093EB0642C01396D1
:104ED000FC93EE931297ED01499159919E01240F95
:104EE000351FE217F30771F480819181840F951FBC
:104EF000029611969C938E938281938113969C9334
:104F00008E931297E0E0F0E0D80112968D919C917B
:104F10001397009719F0F8018C01F6CF8D919C91B1
:104F200098012E5F3F4F820F931F2091E906309129
:104F3000EA062817390769F4309729F41092EC062D
:104F40001092EB0602C0138212821093EA060093BD
:104F5000E906DF91CF911F910F91089581E090E0D4
:104F6000F8940C944B28FB01DC014150504048F070
:104F700001900D920020C9F701C01D924150504090
:104F8000E0F70895FC0188279927E89421912032C1
:104F9000E9F3293010F02E30C8F32B3241F02D32D6
:104FA00039F4689404C00E94E027820F911D21917A
:104FB00020532A30C0F31EF4909581959F4F089599
:104FC0007AE0979F902D879F802D910D1124089551
:104FD000F999FECF92BD81BDF89A992780B50895C1
:104FE000052E97FB1EF400940E94072857FD07D05A
:104FF0000E941A2807FC03D04EF40C940728509501
:105000004095309521953F4F4F4F5F4F08959095B4
:105010008095709561957F4F8F4F9F4F08950E94A7
:105020003C28A59F900DB49F900DA49F800D911DCD
:1050300011240895A1E21A2EAA1BBB1BFD010DC06D
:10504000AA1FBB1FEE1FFF1FA217B307E407F50738
:1050500020F0A21BB30BE40BF50B661F771F881F14
:10506000991F1A9469F760957095809590959B01AA
:10507000AC01BD01CF010895A29FB001B39FC00153
:10508000A39F700D811D1124911DB29F700D811D74
:105090001124911D089510E0CCEED0E004C0FE0173
:1050A0000E945D242196CD3ED107C9F7F894FFCF29
:1050B000DE0201060C003905FFFFFFFFFFFF00E1E4
:1050C0000000000000000000ED068000010000006C
:1050D000000000007F0B7F0B7F0B360432042F048F
:1050E000000000005B049E043601360432043301E4
:1050F00097016364656667616270010003000500E3
:10510000060008000A000C0000000000060115015E
:10511000260137014A015D01720188019F01B80132
:10512000D201EE010B022A024B026E029302BA0276
:10513000E40210033F037003A403DC0317045504C7
:105140009704DD0427057505C80520067D06E006E1
:105150004907B8072D08A9082D09B9094D0AEA0A17
:10516000900B400CFA0CC00D910E6F0F5105010809
:1051700088073F0AE505B309AD06E4040D051906E5
:105180000D0706014A0188010B0293021003170460
:105190002705000000000000000000C18081000021
:1051A0000000000000A90E320B78185D0B710BF0A7
:1051B0000E000000008E18401AAF18D518F318A47E
:1051C0001800000000680138012B011701891288BE
:1051D00012000000009C09E2045A04811398120096
:1051E000000000000000005A047F0B7F0B436F7526
:1051F0006C646E277420636F6E6E65637420746FC9
:1052000020616363656C0020496E636F6D696E6732
:105210002073706565643A002043617374696E673A
:105220003A005061636B65742066726F6D200052A6
:1052300065636569766564204D4F444520736967F1
:105240006E616C00506F776572696E67206F66667D
:105250002E2E2E00496E2074657374206D6F646568
:105260002E2E2E002043757272656E74206D6F6451
:10527000653A20002050726F677265732074696D03
:1052800065723A20004C4953334448000D0A00002F
:00000001FF
